{
  "_format": "hh-sol-artifact-1",
  "contractName": "ZombieFeeding",
  "sourceName": "contracts/ZombieFeeding.sol",
  "abi": [
    {
      "anonymous": false,
      "inputs": [
        {
          "indexed": false,
          "internalType": "uint256",
          "name": "zombieId",
          "type": "uint256"
        },
        {
          "indexed": false,
          "internalType": "string",
          "name": "name",
          "type": "string"
        },
        {
          "indexed": false,
          "internalType": "uint256",
          "name": "dna",
          "type": "uint256"
        }
      ],
      "name": "NewZombie",
      "type": "event"
    },
    {
      "inputs": [
        {
          "internalType": "string",
          "name": "_name",
          "type": "string"
        }
      ],
      "name": "createRandomZombie",
      "outputs": [],
      "stateMutability": "nonpayable",
      "type": "function"
    },
    {
      "inputs": [
        {
          "internalType": "uint256",
          "name": "_zombieId",
          "type": "uint256"
        },
        {
          "internalType": "uint256",
          "name": "_kittyId",
          "type": "uint256"
        }
      ],
      "name": "feedOnKitty",
      "outputs": [],
      "stateMutability": "nonpayable",
      "type": "function"
    },
    {
      "inputs": [
        {
          "internalType": "address",
          "name": "_address",
          "type": "address"
        }
      ],
      "name": "setKittyContractAddress",
      "outputs": [],
      "stateMutability": "nonpayable",
      "type": "function"
    },
    {
      "inputs": [
        {
          "internalType": "uint256",
          "name": "",
          "type": "uint256"
        }
      ],
      "name": "zombieToOwner",
      "outputs": [
        {
          "internalType": "address",
          "name": "",
          "type": "address"
        }
      ],
      "stateMutability": "view",
      "type": "function"
    },
    {
      "inputs": [
        {
          "internalType": "uint256",
          "name": "",
          "type": "uint256"
        }
      ],
      "name": "zombies",
      "outputs": [
        {
          "internalType": "string",
          "name": "name",
          "type": "string"
        },
        {
          "internalType": "uint256",
          "name": "dna",
          "type": "uint256"
        },
        {
          "internalType": "uint32",
          "name": "level",
          "type": "uint32"
        },
        {
          "internalType": "uint32",
          "name": "readyTime",
          "type": "uint32"
        },
        {
          "internalType": "uint16",
          "name": "winCount",
          "type": "uint16"
        },
        {
          "internalType": "uint16",
          "name": "lossCount",
          "type": "uint16"
        }
      ],
      "stateMutability": "view",
      "type": "function"
    }
  ],
  "bytecode": "0x60806040526000805460ff191660109081179091556200002190600a62000154565b600155620151806002553480156200003857600080fd5b506200016c565b634e487b7160e01b600052601160045260246000fd5b600181815b80851115620000965781600019048211156200007a576200007a6200003f565b808516156200008857918102915b93841c93908002906200005a565b509250929050565b600082620000af575060016200014e565b81620000be575060006200014e565b8160018114620000d75760028114620000e25762000102565b60019150506200014e565b60ff841115620000f657620000f66200003f565b50506001821b6200014e565b5060208310610133831016604e8410600b841016171562000127575081810a6200014e565b62000133838362000055565b80600019048211156200014a576200014a6200003f565b0290505b92915050565b60006200016560ff8416836200009e565b9392505050565b610af0806200017c6000396000f3fe608060405234801561001057600080fd5b50600436106100575760003560e01c806317a7f4cc1461005c5780632052465e14610071578063528b7b8f1461009f5780635f4623f1146100e05780637bff0a0114610110575b600080fd5b61006f61006a366004610722565b610123565b005b61008461007f366004610744565b6101dd565b604051610096969594939291906107b9565b60405180910390f35b6100c86100ad366004610744565b6004602052600090815260409020546001600160a01b031681565b6040516001600160a01b039091168152602001610096565b61006f6100ee366004610804565b600680546001600160a01b0319166001600160a01b0392909216919091179055565b61006f61011e366004610843565b6102c7565b60065460405163e98b7f4d60e01b8152600481018390526000916001600160a01b03169063e98b7f4d906024016101406040518083038186803b15801561016957600080fd5b505afa15801561017d573d6000803e3d6000fd5b505050506040513d601f19601f820116820180604052508101906101a19190610909565b6040805180820190915260058152646b6974747960d81b6020820152909a506101d899508c98508a975095506102fc945050505050565b505050565b600381815481106101ed57600080fd5b90600052602060002090600302016000915090508060000180546102109061098b565b80601f016020809104026020016040519081016040528092919081815260200182805461023c9061098b565b80156102895780601f1061025e57610100808354040283529160200191610289565b820191906000526020600020905b81548152906001019060200180831161026c57829003601f168201915b505050600184015460029094015492939263ffffffff8082169350640100000000820416915061ffff600160401b8204811691600160501b90041686565b33600090815260056020526040902054156102e157600080fd5b60006102ec82610452565b90506102f88282610496565b5050565b60008381526004602052604090205483906001600160a01b0316331461032157600080fd5b600060038581548110610336576103366109c6565b9060005260206000209060030201905061036681600201544263ffffffff64010000000090920491909116111590565b61036f57600080fd5b60015461037c90856109f2565b9350600060028583600101546103929190610a1c565b61039c9190610a34565b604051646b6974747960d81b602082015290915060250160405160208183030381529060405280519060200120846040516020016103da9190610a48565b604051602081830303815290604052805190602001201415610419576104016064826109f2565b61040b9082610a64565b610416906063610a1c565b90505b610441604051806040016040528060068152602001654e6f4e616d6560d01b81525082610496565b61044a82610638565b505050505050565b600080826040516020016104669190610a48565b6040516020818303038152906040528051906020012060001c90506001548161048f91906109f2565b9392505050565b60036040518060c00160405280848152602001838152602001600163ffffffff168152602001600254426104ca9190610a1c565b63ffffffff16815260006020808301829052604090920181905283546001810185559381528190208251805193946003029091019261050c9284920190610689565b5060208201516001808301919091556040830151600290920180546060850151608086015160a09096015161ffff908116600160501b0261ffff60501b1991909716600160401b02166bffffffff00000000000000001963ffffffff9283166401000000000267ffffffffffffffff1990941692909616919091179190911793909316929092179290921790556003546000916105a891610a64565b600081815260046020908152604080832080546001600160a01b03191633908117909155835260059091529020549091506105e490600161066a565b336000908152600560205260409081902091909155517f88f026aacbbecc90c18411df4b1185fd8d9be2470f1962f192bf84a27d0704b79061062b90839086908690610a7b565b60405180910390a1505050565b6002546106459042610a1c565b8160020160046101000a81548163ffffffff021916908363ffffffff16021790555050565b6000806106778385610a1c565b90508381101561048f5761048f610aa4565b8280546106959061098b565b90600052602060002090601f0160209004810192826106b757600085556106fd565b82601f106106d057805160ff19168380011785556106fd565b828001600101855582156106fd579182015b828111156106fd5782518255916020019190600101906106e2565b5061070992915061070d565b5090565b5b80821115610709576000815560010161070e565b6000806040838503121561073557600080fd5b50508035926020909101359150565b60006020828403121561075657600080fd5b5035919050565b60005b83811015610778578181015183820152602001610760565b83811115610787576000848401525b50505050565b600081518084526107a581602086016020860161075d565b601f01601f19169290920160200192915050565b60c0815260006107cc60c083018961078d565b60208301979097525063ffffffff948516604082015292909316606083015261ffff908116608083015290911660a090910152919050565b60006020828403121561081657600080fd5b81356001600160a01b038116811461048f57600080fd5b634e487b7160e01b600052604160045260246000fd5b60006020828403121561085557600080fd5b813567ffffffffffffffff8082111561086d57600080fd5b818401915084601f83011261088157600080fd5b8135818111156108935761089361082d565b604051601f8201601f19908116603f011681019083821181831017156108bb576108bb61082d565b816040528281528760208487010111156108d457600080fd5b826020860160208301376000928101602001929092525095945050505050565b8051801515811461090457600080fd5b919050565b6000806000806000806000806000806101408b8d03121561092957600080fd5b6109328b6108f4565b995061094060208c016108f4565b985060408b0151975060608b0151965060808b0151955060a08b0151945060c08b0151935060e08b015192506101008b015191506101208b015190509295989b9194979a5092959850565b600181811c9082168061099f57607f821691505b602082108114156109c057634e487b7160e01b600052602260045260246000fd5b50919050565b634e487b7160e01b600052603260045260246000fd5b634e487b7160e01b600052601260045260246000fd5b600082610a0157610a016109dc565b500690565b634e487b7160e01b600052601160045260246000fd5b60008219821115610a2f57610a2f610a06565b500190565b600082610a4357610a436109dc565b500490565b60008251610a5a81846020870161075d565b9190910192915050565b600082821015610a7657610a76610a06565b500390565b838152606060208201526000610a94606083018561078d565b9050826040830152949350505050565b634e487b7160e01b600052600160045260246000fdfea26469706673582212204d2ca0ae3e5e72c71ab8ede9006a0d6a85624314eeb3659a1ac559fe34f3b5ba64736f6c63430008090033",
  "linkReferences": {},
  "deployedLinkReferences": {}
}