{
  "_format": "hh-sol-artifact-1",
  "contractName": "ZombieAttack",
  "sourceName": "contracts/ZombieAttack.sol",
  "abi": [
    {
      "anonymous": false,
      "inputs": [
        {
          "indexed": false,
          "internalType": "uint256",
          "name": "zombieId",
          "type": "uint256"
        },
        {
          "indexed": false,
          "internalType": "string",
          "name": "name",
          "type": "string"
        },
        {
          "indexed": false,
          "internalType": "uint256",
          "name": "dna",
          "type": "uint256"
        }
      ],
      "name": "NewZombie",
      "type": "event"
    },
    {
      "anonymous": false,
      "inputs": [
        {
          "indexed": true,
          "internalType": "address",
          "name": "prviousOwner",
          "type": "address"
        },
        {
          "indexed": true,
          "internalType": "address",
          "name": "newOwner",
          "type": "address"
        }
      ],
      "name": "OwnershipTransferred",
      "type": "event"
    },
    {
      "inputs": [
        {
          "internalType": "uint256",
          "name": "_zombieId",
          "type": "uint256"
        },
        {
          "internalType": "uint256",
          "name": "_targetId",
          "type": "uint256"
        }
      ],
      "name": "attack",
      "outputs": [],
      "stateMutability": "nonpayable",
      "type": "function"
    },
    {
      "inputs": [
        {
          "internalType": "uint256",
          "name": "_zombieId",
          "type": "uint256"
        },
        {
          "internalType": "uint256",
          "name": "_newDna",
          "type": "uint256"
        }
      ],
      "name": "changeDna",
      "outputs": [],
      "stateMutability": "nonpayable",
      "type": "function"
    },
    {
      "inputs": [
        {
          "internalType": "uint256",
          "name": "_zombieId",
          "type": "uint256"
        },
        {
          "internalType": "string",
          "name": "_newName",
          "type": "string"
        }
      ],
      "name": "changeName",
      "outputs": [],
      "stateMutability": "nonpayable",
      "type": "function"
    },
    {
      "inputs": [
        {
          "internalType": "string",
          "name": "_name",
          "type": "string"
        }
      ],
      "name": "createRandomZombie",
      "outputs": [],
      "stateMutability": "nonpayable",
      "type": "function"
    },
    {
      "inputs": [
        {
          "internalType": "uint256",
          "name": "_zombieId",
          "type": "uint256"
        },
        {
          "internalType": "uint256",
          "name": "_kittyId",
          "type": "uint256"
        }
      ],
      "name": "feedOnKitty",
      "outputs": [],
      "stateMutability": "nonpayable",
      "type": "function"
    },
    {
      "inputs": [
        {
          "internalType": "address",
          "name": "_owner",
          "type": "address"
        }
      ],
      "name": "getZombiesByOwner",
      "outputs": [
        {
          "internalType": "uint256[]",
          "name": "",
          "type": "uint256[]"
        }
      ],
      "stateMutability": "view",
      "type": "function"
    },
    {
      "inputs": [],
      "name": "isOwner",
      "outputs": [
        {
          "internalType": "bool",
          "name": "",
          "type": "bool"
        }
      ],
      "stateMutability": "view",
      "type": "function"
    },
    {
      "inputs": [
        {
          "internalType": "uint256",
          "name": "_zombieId",
          "type": "uint256"
        }
      ],
      "name": "levelUp",
      "outputs": [],
      "stateMutability": "payable",
      "type": "function"
    },
    {
      "inputs": [],
      "name": "owner",
      "outputs": [
        {
          "internalType": "address",
          "name": "",
          "type": "address"
        }
      ],
      "stateMutability": "view",
      "type": "function"
    },
    {
      "inputs": [],
      "name": "renounceOwnership",
      "outputs": [],
      "stateMutability": "nonpayable",
      "type": "function"
    },
    {
      "inputs": [
        {
          "internalType": "address",
          "name": "_address",
          "type": "address"
        }
      ],
      "name": "setKittyContractAddress",
      "outputs": [],
      "stateMutability": "nonpayable",
      "type": "function"
    },
    {
      "inputs": [
        {
          "internalType": "uint256",
          "name": "_fee",
          "type": "uint256"
        }
      ],
      "name": "setLevelUpFee",
      "outputs": [],
      "stateMutability": "nonpayable",
      "type": "function"
    },
    {
      "inputs": [
        {
          "internalType": "address",
          "name": "newOwner",
          "type": "address"
        }
      ],
      "name": "transferOwnership",
      "outputs": [],
      "stateMutability": "nonpayable",
      "type": "function"
    },
    {
      "inputs": [],
      "name": "withdraw",
      "outputs": [],
      "stateMutability": "nonpayable",
      "type": "function"
    },
    {
      "inputs": [
        {
          "internalType": "uint256",
          "name": "",
          "type": "uint256"
        }
      ],
      "name": "zombieToOwner",
      "outputs": [
        {
          "internalType": "address",
          "name": "",
          "type": "address"
        }
      ],
      "stateMutability": "view",
      "type": "function"
    },
    {
      "inputs": [
        {
          "internalType": "uint256",
          "name": "",
          "type": "uint256"
        }
      ],
      "name": "zombies",
      "outputs": [
        {
          "internalType": "string",
          "name": "name",
          "type": "string"
        },
        {
          "internalType": "uint256",
          "name": "dna",
          "type": "uint256"
        },
        {
          "internalType": "uint32",
          "name": "level",
          "type": "uint32"
        },
        {
          "internalType": "uint32",
          "name": "readyTime",
          "type": "uint32"
        },
        {
          "internalType": "uint16",
          "name": "winCount",
          "type": "uint16"
        },
        {
          "internalType": "uint16",
          "name": "lossCount",
          "type": "uint16"
        }
      ],
      "stateMutability": "view",
      "type": "function"
    }
  ],
  "bytecode": "0x60806040526000805460ff191660109081179091556200002190600a620001a9565b6001556201518060025566038d7ea4c6800060085560006009556046600a553480156200004d57600080fd5b50600780546001600160a01b031916339081179091556040516000907f8be0079c531659141344cd1fd0a4f28419497f9722a3daafe3b4186f6b6457e0908290a3620001c1565b634e487b7160e01b600052601160045260246000fd5b600181815b80851115620000eb578160001904821115620000cf57620000cf62000094565b80851615620000dd57918102915b93841c9390800290620000af565b509250929050565b6000826200010457506001620001a3565b816200011357506000620001a3565b81600181146200012c5760028114620001375762000157565b6001915050620001a3565b60ff8411156200014b576200014b62000094565b50506001821b620001a3565b5060208310610133831016604e8410600b84101617156200017c575081810a620001a3565b620001888383620000aa565b80600019048211156200019f576200019f62000094565b0290505b92915050565b6000620001ba60ff841683620000f3565b9392505050565b61151580620001d16000396000f3fe6080604052600436106100f35760003560e01c8063715018a61161008a578063c39cbef111610059578063c39cbef1146102d3578063ccf670f8146102f3578063e1fa763814610313578063f2fde38b1461033357600080fd5b8063715018a6146102555780637bff0a011461026a5780638da5cb5b1461028a5780638f32d59b146102a857600080fd5b80634412e104116100c65780634412e1041461017d578063528b7b8f146101aa5780635f4623f1146101f85780635faf28801461023557600080fd5b80630ce90ec2146100f857806317a7f4cc1461010d5780632052465e1461012d5780633ccfd60b14610168575b600080fd5b61010b61010636600461101f565b610353565b005b34801561011957600080fd5b5061010b610128366004611038565b6103ba565b34801561013957600080fd5b5061014d61014836600461101f565b610474565b60405161015f969594939291906110b6565b60405180910390f35b34801561017457600080fd5b5061010b61055e565b34801561018957600080fd5b5061019d610198366004611101565b6105c5565b60405161015f919061112a565b3480156101b657600080fd5b506101e06101c536600461101f565b6004602052600090815260409020546001600160a01b031681565b6040516001600160a01b03909116815260200161015f565b34801561020457600080fd5b5061010b610213366004611101565b600680546001600160a01b0319166001600160a01b0392909216919091179055565b34801561024157600080fd5b5061010b610250366004611038565b61069d565b34801561026157600080fd5b5061010b610757565b34801561027657600080fd5b5061010b610285366004611211565b6107b8565b34801561029657600080fd5b506007546001600160a01b03166101e0565b3480156102b457600080fd5b506007546001600160a01b03163314604051901515815260200161015f565b3480156102df57600080fd5b5061010b6102ee36600461124e565b6107e9565b3480156102ff57600080fd5b5061010b61030e36600461101f565b6108b3565b34801561031f57600080fd5b5061010b61032e366004611038565b6108cf565b34801561033f57600080fd5b5061010b61034e366004611101565b610aad565b600854341461036157600080fd5b6003818154811061037457610374611295565b600091825260208220600260039092020101805463ffffffff1691610398836112c1565b91906101000a81548163ffffffff021916908363ffffffff1602179055505050565b60065460405163e98b7f4d60e01b8152600481018390526000916001600160a01b03169063e98b7f4d906024016101406040518083038186803b15801561040057600080fd5b505afa158015610414573d6000803e3d6000fd5b505050506040513d601f19601f8201168201806040525081019061043891906112fa565b6040805180820190915260058152646b6974747960d81b6020820152909a5061046f99508c98508a97509550610ad0945050505050565b505050565b6003818154811061048457600080fd5b90600052602060002090600302016000915090508060000180546104a79061137c565b80601f01602080910402602001604051908101604052809291908181526020018280546104d39061137c565b80156105205780601f106104f557610100808354040283529160200191610520565b820191906000526020600020905b81548152906001019060200180831161050357829003601f168201915b505050600184015460029094015492939263ffffffff8082169350640100000000820416915061ffff600160401b8204811691600160501b90041686565b6007546001600160a01b0316331461057557600080fd5b60006105896007546001600160a01b031690565b6040519091506001600160a01b038216904780156108fc02916000818181858888f193505050501580156105c1573d6000803e3d6000fd5b5050565b6001600160a01b0381166000908152600560205260408120546060919067ffffffffffffffff8111156105fa576105fa61116e565b604051908082528060200260200182016040528015610623578160200160208202803683370190505b5090506000805b600354811015610694576000818152600460205260409020546001600160a01b0386811691161415610682578083838151811061066957610669611295565b60209081029190910101528161067e816113b7565b9250505b8061068c816113b7565b91505061062a565b50909392505050565b6014828163ffffffff16600382815481106106ba576106ba611295565b600091825260209091206002600390920201015463ffffffff1610156106df57600080fd5b60008481526004602052604090205484906001600160a01b0316331461070457600080fd5b6000858152600460205260409020546001600160a01b0316331461072757600080fd5b836003868154811061073b5761073b611295565b9060005260206000209060030201600101819055505050505050565b6007546001600160a01b0316331461076e57600080fd5b6007546040516000916001600160a01b0316907f8be0079c531659141344cd1fd0a4f28419497f9722a3daafe3b4186f6b6457e0908390a3600780546001600160a01b0319169055565b33600090815260056020526040902054156107d257600080fd5b60006107dd82610c1e565b90506105c18282610c62565b6002828163ffffffff166003828154811061080657610806611295565b600091825260209091206002600390920201015463ffffffff16101561082b57600080fd5b60008481526004602052604090205484906001600160a01b0316331461085057600080fd5b6000858152600460205260409020546001600160a01b0316331461087357600080fd5b836003868154811061088757610887611295565b906000526020600020906003020160000190805190602001906108ab929190610f86565b505050505050565b6007546001600160a01b031633146108ca57600080fd5b600855565b60008281526004602052604090205482906001600160a01b031633146108f457600080fd5b60006003848154811061090957610909611295565b9060005260206000209060030201905060006003848154811061092e5761092e611295565b90600052602060002090600302019050600061094a6064610e04565b9050600a548111610a3657600283015461097090600160401b900461ffff166001610e74565b60028401805461ffff92909216600160401b0269ffff000000000000000019831681179091556109b09163ffffffff9182169082161790600190610e9b16565b6002848101805463ffffffff191663ffffffff9384161790558301546109e691600160501b90910461ffff1690600190610e7416565b82600201600a6101000a81548161ffff021916908361ffff160217905550610a31868360010154604051806040016040528060068152602001657a6f6d62696560d01b815250610ad0565b6108ab565b6002830154610a5190600160501b900461ffff166001610e74565b6002848101805461ffff60501b1916600160501b61ffff94851602179055830154610a8691600160401b909104166001610e74565b8260020160086101000a81548161ffff021916908361ffff1602179055506108ab83610ec6565b6007546001600160a01b03163314610ac457600080fd5b610acd81610ef8565b50565b60008381526004602052604090205483906001600160a01b03163314610af557600080fd5b600060038581548110610b0a57610b0a611295565b90600052602060002090600302019050610b3a81600201544263ffffffff64010000000090920491909116111590565b610b4357600080fd5b600154610b5090856113e8565b935060006002858360010154610b6691906113fc565b610b709190611414565b604051646b6974747960d81b60208201529091506025016040516020818303038152906040528051906020012084604051602001610bae9190611428565b604051602081830303815290604052805190602001201415610bed57610bd56064826113e8565b610bdf9082611444565b610bea9060636113fc565b90505b610c15604051806040016040528060068152602001654e6f4e616d6560d01b81525082610c62565b6108ab82610ec6565b60008082604051602001610c329190611428565b6040516020818303038152906040528051906020012060001c905060015481610c5b91906113e8565b9392505050565b60036040518060c00160405280848152602001838152602001600163ffffffff16815260200160025442610c9691906113fc565b63ffffffff168152600060208083018290526040909201819052835460018101855593815281902082518051939460030290910192610cd89284920190610f86565b5060208201516001808301919091556040830151600290920180546060850151608086015160a09096015161ffff908116600160501b0261ffff60501b1991909716600160401b02166bffffffff00000000000000001963ffffffff9283166401000000000267ffffffffffffffff199094169290961691909117919091179390931692909217929092179055600354600091610d7491611444565b600081815260046020908152604080832080546001600160a01b0319163390811790915583526005909152902054909150610db0906001610f67565b336000908152600560205260409081902091909155517f88f026aacbbecc90c18411df4b1185fd8d9be2470f1962f192bf84a27d0704b790610df79083908690869061145b565b60405180910390a1505050565b600954600090610e15906001610f67565b6009819055604080514260208201526bffffffffffffffffffffffff193360601b1691810191909152605481019190915282906074016040516020818303038152906040528051906020012060001c610e6e91906113e8565b92915050565b600080610e818385611484565b90508361ffff168161ffff161015610c5b57610c5b6114aa565b600080610ea883856114c0565b90508363ffffffff168163ffffffff161015610c5b57610c5b6114aa565b600254610ed390426113fc565b8160020160046101000a81548163ffffffff021916908363ffffffff16021790555050565b6001600160a01b038116610f0b57600080fd5b6007546040516001600160a01b038084169216907f8be0079c531659141344cd1fd0a4f28419497f9722a3daafe3b4186f6b6457e090600090a3600780546001600160a01b0319166001600160a01b0392909216919091179055565b600080610f7483856113fc565b905083811015610c5b57610c5b6114aa565b828054610f929061137c565b90600052602060002090601f016020900481019282610fb45760008555610ffa565b82601f10610fcd57805160ff1916838001178555610ffa565b82800160010185558215610ffa579182015b82811115610ffa578251825591602001919060010190610fdf565b5061100692915061100a565b5090565b5b80821115611006576000815560010161100b565b60006020828403121561103157600080fd5b5035919050565b6000806040838503121561104b57600080fd5b50508035926020909101359150565b60005b8381101561107557818101518382015260200161105d565b83811115611084576000848401525b50505050565b600081518084526110a281602086016020860161105a565b601f01601f19169290920160200192915050565b60c0815260006110c960c083018961108a565b60208301979097525063ffffffff948516604082015292909316606083015261ffff908116608083015290911660a090910152919050565b60006020828403121561111357600080fd5b81356001600160a01b0381168114610c5b57600080fd5b6020808252825182820181905260009190848201906040850190845b8181101561116257835183529284019291840191600101611146565b50909695505050505050565b634e487b7160e01b600052604160045260246000fd5b600082601f83011261119557600080fd5b813567ffffffffffffffff808211156111b0576111b061116e565b604051601f8301601f19908116603f011681019082821181831017156111d8576111d861116e565b816040528381528660208588010111156111f157600080fd5b836020870160208301376000602085830101528094505050505092915050565b60006020828403121561122357600080fd5b813567ffffffffffffffff81111561123a57600080fd5b61124684828501611184565b949350505050565b6000806040838503121561126157600080fd5b82359150602083013567ffffffffffffffff81111561127f57600080fd5b61128b85828601611184565b9150509250929050565b634e487b7160e01b600052603260045260246000fd5b634e487b7160e01b600052601160045260246000fd5b600063ffffffff808316818114156112db576112db6112ab565b6001019392505050565b805180151581146112f557600080fd5b919050565b6000806000806000806000806000806101408b8d03121561131a57600080fd5b6113238b6112e5565b995061133160208c016112e5565b985060408b0151975060608b0151965060808b0151955060a08b0151945060c08b0151935060e08b015192506101008b015191506101208b015190509295989b9194979a5092959850565b600181811c9082168061139057607f821691505b602082108114156113b157634e487b7160e01b600052602260045260246000fd5b50919050565b60006000198214156113cb576113cb6112ab565b5060010190565b634e487b7160e01b600052601260045260246000fd5b6000826113f7576113f76113d2565b500690565b6000821982111561140f5761140f6112ab565b500190565b600082611423576114236113d2565b500490565b6000825161143a81846020870161105a565b9190910192915050565b600082821015611456576114566112ab565b500390565b838152606060208201526000611474606083018561108a565b9050826040830152949350505050565b600061ffff8083168185168083038211156114a1576114a16112ab565b01949350505050565b634e487b7160e01b600052600160045260246000fd5b600063ffffffff8083168185168083038211156114a1576114a16112ab56fea2646970667358221220a88536c362bec07e685f6d32b0f9bcaac2cfd6e167a5accc5c4849049db97ea064736f6c63430008090033",
  "linkReferences": {},
  "deployedLinkReferences": {}
}